S01D0000414D53325A574156452D62746C2D636F6D62696E65642E7333375A
S3150FE100000F4880F308880F48004700008105E10F8C
S3150FE100108105E10F8105E10F8105E10F8105E10F12
S3150FE100208105E10F8105E10F9C05E10F8105E10FE7
S3150FE100308105E10F8105E10F8105E10F8105E10FF2
S3150FE10040004000203505E10F10B5054C237833B993
S3150FE10050044B13B10448AFF300800123237010BDA5
S3150FE100601001002000000000B005E10F08B5034BB9
S3150FE100701BB103490348AFF3008008BD0000000040
S3150FE1008014010020B005E10F044B054A9A60D3F83D
S3150FE10090882042F47002C3F88820704700ED00E033
S3150FE100A00000E10F094A0A4BD969C90705D512B90B
S3150FE100B06FF002007047013AF6E7002AF8D0012205
S3150FE100C01861DA60D86940F380007047809698002E
S3150FE100D000000E4070B509B9002070BD0E4A00232D
S3150FE100E0082550F8234094610C4CD5600133D6694D
S3150FE100F0F60705D514B96FF00200EEE7013CF6E716
S3150FE10100002CF8D0D469A40702D49942E9D1E3E7E8
S3150FE101106FF00100E1E700BF00000E408096980006
S3150FE101202DE9F8431C4B884641F671311D6C196474
S3150FE101301A49074648684968996841F00101ADB225
S3150FE10140996096084FF00009B14501D3002005E00B
S3150FE1015007EB89042046FFF7A5FF48B10E4B9A68D6
S3150FE1016022F001029A600DB100221A64BDE8F8830C
S3150FE10170C4F30A04C4F50064A408A6EB09039C4280
S3150FE1018028BF1C4621464046FFF7A4FF0028E5D1CC
S3150FE10190A14408EB8408D7E700000E4000300E407B
S3150FE101A0204B41F671311A6C10B519641E494C6832
S3150FE101B04968996841F00101996001211861D96097
S3150FE101C0D9694C0792B209D5996821F00101996075
S3150FE101D00AB100221A644FF0FF301FE00221134CDF
S3150FE101E0D9601946D869C00700D56CB9C8698B685B
S3150FE101F010F0020023F001038B6007D00AB1002350
S3150FE102000B646FF0010009E0013CEBE724B902B1A1
S3150FE102100C646FF0020001E00AB1086410BD1046EC
S3150FE10220FCE700BF00000E4000300E4080969800BC
S3150FE10230FFF776BF08B50A4B1A680A4B1A600A4BE5
S3150FE1024040221A615A685203FCD400F07BF8002869
S3150FE10250FBD040F2022000F0C5F8002008BD00BF38
S3150FE10260040100200001002000300E4010B5104CB3
S3150FE10270104BA36000F0D4F80F4B5B68B3F5803FEA
S3150FE1028009D040F20923984202D0B0F5007F02D19E
S3150FE1029000F016F850B9094BA3601846016881F3CF
S3150FE102A0088881F3098840688746FEE710BD00BFDD
S3150FE102B000ED00E00000E10F00500E400008E10FF5
S3150FE102C0F8B51C4B1A681069D568836AAB4201D23F
S3150FE102D00020F8BD05F560529A42F9D95B1BC618A5
S3150FE102E0C758154B9F42F3D14FF0FF32F16800F03B
S3150FE102F005F9124B98420446EAD1114B1B68A3F15B
S3150FE103007E62A2F58432B2F5605F10D21A68BA4204
S3150FE103100DD1B1689A68914209D84FF0FF32D96889
S3150FE10320284600F0EBF8001B18BF0120D1E70120AA
S3150FE10330CFE700BF2800E10F07B0CD5EE320BBDEBC
S3150FE103402808E10FF8B5184B1B68D3E90347BB6AD9
S3150FE103501B1BFD182646EA68A318B3421CD839467B
S3150FE10360204600F096F8B0B1104B1B68A3F17E6200
S3150FE10370A2F58432B2F5605F14D219680C4A914244
S3150FE1038010D1D9684FF0FF32204600F0B7F8094B8C
S3150FE10390C31A58425841F8BD304600F073F806F5D6
S3150FE103A00066D8E70020F6E72800E10F2808E10FFD
S3150FE103B007B0CD5EE320BBDE4FF000534AF6C03007
S3150FE103C05B8823F00F031B1A5842584170474FF0D1
S3150FE103D0005208B51080FFF7EFFF10B94FF20F0388
S3150FE103E0538008BD08B5FFF7F2FF0A4A136823F4F5
S3150FE103F0E06343F400731360BFF34F8F0649074B76
S3150FE10400CA6802F4E0621343CB60BFF34F8F00BFBC
S3150FE10410FDE700BF00500E4000ED00E00400FA05D5
S3150FE1042008B5FFF7C9FF30B94FF000534FF20F018F
S3150FE104305A888A4203D14FF00053188808BD3AB95A
S3150FE104401B88012B40F2022018BF4FF40070F5E72D
S3150FE104504FF40070F2E707B503469B0753BF6FEA08
S3150FE1046001414FF6FF7343EA01416FEA114104225D
S3150FE10470019120F003000DEB0201FFF7D9FE03B066
S3150FE104805DF804FB08B5FFF78BFEB0FA80F0400983
S3150FE1049008BDF8B505460E4614460AB90120F8BD62
S3150FE104A042EA0003DA0701D50020F8E7830721D5F1
S3150FE104B00988FFF7D0FF0028F6D1023C032C05F19E
S3150FE104C0020506F102060BD924F003073A46314637
S3150FE104D02846FFF7ADFE0028E6D13E443D44E41B36
S3150FE104E0002CDBD031882846FFF7B5FFB0FA80F054
S3150FE104F04009D4E7032CE7D8F4E7000010B50B4C1D
S3150FE10500D4F8B03043F04003C4F8B030084B0124BF
S3150FE105101C6001449A605C601A46884201D1D86931
S3150FE1052010BD10F8014B9461F7E700BF00400E4094
S3150FE1053000C001400B4880470B4880470B490C4AE6
S3150FE105400C4B9A42BEBF51F8040B42F8040BF8E785
S3150FE1055009490A4A00209142BCBF41F8040BFAE768
S3150FE10560FFF768FE8900E10F6D02E10FB405E10FB8
S3150FE105700001002010010020100100202C010020B5
S3150FE10580FEE700BFF8B500BFF8BC08BC9E46704752
S3150FE10590F8B500BFF8BC08BC9E467047AD1007B072
S3150FE105A00100000000000C010008E10F00800000CF
S3150FE105B000000000C0EA2101C0EA21016D00E10F50
S3090FE105C04900E10F08
S3150FE10800007C0020A108E10F9D08E10FF708E10F39
S3150FE108109D08E10F9D08E10F9D08E10F9D08E10F8E
S3150FE108209D08E10F9D08E10F4839E10F9D08E10FA2
S3150FE108309D08E10F8839E10F9D08E10F9D08E10F52
S3150FE1084010B5054C237833B9044B13B10448AFF314
S3150FE1085000800123237010BD080100200000000075
S3150FE10860603BE10F08B5034B1BB103490348AFF3F7
S3150FE10870008008BD000000000C010020603BE10F85
S3150FE10880044B054A9A60D3F8882042F47002C3F804
S3150FE108908820704700ED00E00008E10FFEE7000059
S3150FE108A008B5FFF7EDFF00F09BF80A4A0A4B0B4933
S3150FE108B08B4206D30A4B0B4A0021934206D300F033
S3150FE108C01FF852F8040F43F8040BF1E743F8041B42
S3150FE108D0F3E700BF603BE10F0001002008010020B4
S3150FE108E0080100204401002000207047704701F005
S3150FE108F0CBBA01F01DBB4FF4017002F091BA0000C3
S3150FE109002F4B13B501225A641A6842F480721A60AA
S3150FE1091001A801F0F7F89DF80530012B03D89DF8F2
S3150FE109200430022B09D9274B4FF418721A60264A65
S3150FE109305A60264A5A66264ADA66264A136843F405
S3150FE10940F8431360244B40221A615A685203FCD4D0
S3150FE10950FFF7CDFF02F034FA08B902F01FFA01F002
S3150FE10960FAFC044658B902F02BFA08B102F022FA62
S3150FE1097040F2012002F054FA4FF4017018E002F050
S3150FE109801FFA08B902F010FA02F030FA012802D97B
S3150FE1099002F010FAFEE702F033FA104B0193019BD6
S3150FE109A0002B0ADC40F205439C42E5D140F20320DD
S3150FE109B002F036FA002002B010BD019B013BEDE7D4
S3150FE109C000000E408C420E409A6F0500180100049C
S3150FE109D000843208A4310E4000300E4000350C0081
S3150FE109E013B5254B01248DF806408DF807405B685A
S3150FE109F05B050FD502F032FAA0F2022080B207288A
S3150FE10A0008D8844014F0C90F1EBF00238DF80630B5
S3150FE10A108DF8073004231B68013308D14FF40270B8
S3150FE10A2002F0D9F900238DF806308DF807309DF8DD
S3150FE10A3007305BB1002002F0E7F88DF806009DF86C
S3150FE10A4006301BB94FF4027002F0C5F99DF8063076
S3150FE10A5083B102F0B5F908B102F0ACF9074A002308
S3150FE10A6093601846016881F3088881F30988406825
S3150FE10A708746FEE702B010BD00500E4000ED00E0E4
S3150FE10A800020704710B50B4CD4F8B03043F040035B
S3150FE10A90C4F8B030084B01241C6001449A605C60D5
S3150FE10AA01A46884201D1D86910BD10F8014B9461FD
S3150FE10AB0F7E700BF00400E4000C00140F8B504461D
S3150FE10AC01D4616460F4601F0D4FADDE90612204619
S3150FE10AD001F0D3FA0023636284F838703268C4F800
S3150FE10AE039207268C4F83D202B0CB26884F8453082
S3150FE10AF02B0AC4F8412084F8463084F84750F8BDF4
S3150FE10B0030B585B01D4600F12803CDE901120093FA
S3150FE10B1000F1240200F13803294601F0C7FA05B0C6
S3150FE10B2030BD00002DE9F041A2B00F4616469846BA
S3150FE10B30289C054660B359B352B34BB344B3012175
S3150FE10B40154800F041FE4022002102A802F0E8FE1E
S3150FE10B50414602A800F0D6FC21460AA812AC00F0E5
S3150FE10B60D1FC40220021204602F0DAFE394620462A
S3150FE10B7000F0C8FC31461AA800F0C4FC009402ABA1
S3150FE10B8020222946054800F0CDFC22B0BDE8F081D0
S3150FE10B9040F20160F9E700BF00050A0000000F40CF
S3150FE10BA010B5044600F0AEF820460021BDE810402E
S3150FE10BB000F0ACB800F0AFB8014600F0B9B80000EC
S3150FE10BC02DE9F74314460E461F46DDE90A82002852
S3150FE10BD045D11CB9002003B0BDE8F08313683F2B64
S3150FE10BE03BD85168204D11B1002F18BF3D4603F098
S3150FE10BF03F00E318136022BF53680133536080B39C
S3150FE10C00C0F140094C4522D331464A46404402F0F1
S3150FE10C107CFE0123009342463B4629460020A4EB86
S3150FE10C20090400F093F83F2C4E440DD93D46A30934
S3150FE10C30009332463B462946002000F087F824F020
S3150FE10C403F031E4404F03F04002CC3D0002022468C
S3150FE10C503146404402F059FEBCE73D46C7E703483B
S3150FE10C60B9E73F2CF3D9E2E7C839E10F80AFFFFFD0
S3150FE10C70F0B517461A6887B01D46D3008DF80F30C9
S3150FE10C8053098DF80E30530B8DF80D30530D8DF84A
S3150FE10C900C306B680C46D90001EB52718DF80B10D5
S3150FE10CA002F03F025909372A8DF80A104FEA5331FC
S3150FE10CB04FEA535394BFC2F13802C2F178028DF86D
S3150FE10CC009108DF808300E492346CDE90075064621
S3150FE10CD0FFF776FF08220DEB02012346CDE90075FA
S3150FE10CE03046FFF76DFF0C9A234604F1200153F8C6
S3150FE10CF0040B42F8040B8B42F9D1002007B0F0BD8B
S3150FE10D00E839E10F6822002102F00ABE0023C0E9AB
S3150FE10D1000331846704707B500F128030190009399
S3150FE10D2000F108030020FFF74BFF03B05DF804FB6A
S3150FE10D3007B50346009100F1280200F108010020F2
S3150FE10D40FFF796FF03B05DF804FB00002DE9F04FC6
S3150FE10D5099B00646894690461D4601F059FA044672
S3150FE10D60002E40F0E280042303604660C6644368C8
S3150FE10D7023F4406343600663466359F826301BBA92
S3150FE10D804DF826300136082EF7D100F05BFD009BBA
S3150FE10D90C4F80431019BC4F80431029BC4F8043151
S3150FE10DA0039BC4F80431049BC4F80431059BC4F8D2
S3150FE10DB00431069BC4F80431079BC4F8043100F0F3
S3150FE10DC045FDDFF874A15A4B2365002608F00309A8
S3150FE10DD0229B9E4239D1AB0700F08A8000F032FDAB
S3150FE10DE0D4F80061D4F80011D4F80021D4F8003119
S3150FE10DF0CDE90061CDE90223D4F80061D4F8001101
S3150FE10E00D4F80021D4F80031CDE90461CDE9062308
S3150FE10E102E4600F01BFD08AF6B461A4603CABA42CF
S3150FE10E2030607160134606F10806F6D1204601F0EF
S3150FE10E30F9F92B1F1C3553F8042F12BAAB421A607E
S3150FE10E40F9D1002019B0BDE8F08F08EB861BB9F197
S3150FE10E50000F0FD008AA0BF1400CDBF80000DBF80E
S3150FE10E600410134603C30BF1080BE3451A46F4D1FD
S3150FE10E700DF1200B00F0E6FCDBE90131DBF80C208C
S3150FE10E80DBF80070C4F8A471C4F8A431C4F8A41156
S3150FE10E90C4F8A421DBE90531DBF81C20DBF810707F
S3150FE10EA0C4F8A471C4F8A431C4F8A411C4F8A421F8
S3150FE10EB0DBE90931DBF82C20DBF82070C4F8A471EB
S3150FE10EC0C4F8A431C4F8A411C4F8A421DBE90CC118
S3150FE10ED0DBE90E23C4F8A4C1C4F8A411C4F8A42114
S3150FE10EE0C4F8A43100F0B2FC0136C4F850A06FE7A4
S3150FE10EF000F0A8FCD4F80061D4F80011D4F8002171
S3150FE10F00D4F80031C5E90061C5E90223D4F80061DF
S3150FE10F10D4F80011D4F80021D4F80031C5E9046101
S3150FE10F20C5E9062300F092FC80E702488AE700BF95
S3150FE10F30888AC80180AFFFFF070D81011C2350F896
S3150FE10F40042F0AB9043BFAD1002BCCBF00200120B4
S3150FE10F50704730B50568046802680368C1E9005453
S3150FE10F60C1E902230568046802680368C1E904540C
S3150FE10F70C1E9062330BDD1E9022330B5D1E90054E9
S3150FE10F800560046002600360D1E90454D1E90623E8
S3150FE10F90056004600260036030BD00002DE9F04199
S3150FE10FA004461D460E46904600211C22181D02F0EE
S3150FE10FB0B7FC01232B6000F045FC4146074604F5DB
S3150FE10FC08070FFF7D8FF314604F5827004F5847619
S3150FE10FD0FFF7D1FF29463046FFF7CDFF384600F040
S3150FE10FE035FC0D4F0D4B0E4A0E490F4823656369CC
S3150FE10FF0DB010BD500F026FC294604463046FFF708
S3150FE11000A8FF2046BDE8F04100F020BC22656165EE
S3150FE11010A065E765EBE700BF39380100393984018F
S3150FE11020D02484FC1C82FED88B1C81A02DE9F04FC5
S3150FE110308DB0044698460F46154600F003FC04F5BD
S3150FE11040827607F14002114604F5867B81463046EA
S3150FE110500392FFF790FF29465846FFF78CFF04F5F9
S3150FE110608873184605F120010293FFF784FF48467E
S3150FE1107000F0ECFB42492165424961650125424990
S3150FE11080A165E56500F0DEFB04F5847907F1200A39
S3150FE11090019039463046FFF76EFF51464846FFF756
S3150FE110A06AFF039A029B11461846FFF764FF019800
S3150FE110B000F0CCFB354B2365354B6365A56500F039
S3150FE110C0C1FB04F58073019008F1400118460293C4
S3150FE110D0FFF73FFF04A94846FFF73BFF019A10468A
S3150FE110E000F0B4FB00F0AEFB394601905846FFF72E
S3150FE110F042FF019A104600F0A9FB264A2265264ACD
S3150FE1110062656FF42673A2F5FE221A44A265E565C0
S3150FE1111000F098FB514607463046FFF72CFF38465D
S3150FE1112000F094FB1D4A22651D4A6265A56500F034
S3150FE1113089FB414607464846FFF70BFF384600F065
S3150FE1114085FB00F07FFB04A907463046FFF713FF47
S3150FE11150384600F07BFB134A2265134A6265A565A3
S3150FE1116000F070FB029B044608F120011846FFF7D9
S3150FE11170F0FE204600F06AFB0DB0BDE8F08F00BF30
S3150FE111808AD11C81D91C83D11C81E11CD01482CB5D
S3150FE111901481E11C8CE11C811C84D91CE014D81448
S3150FE111A01482E11C84D31482D11CE0142DE9F041A1
S3150FE111B0044690B00F46244E0521904600F049FBB8
S3150FE111C000232360236363630FCE08AD0FC596E853
S3150FE111D00F0085E80F0008AA6B4607F1400120468C
S3150FE111E0FFF7DCFE00F02EFB04F586750646694631
S3150FE111F004F58270FFF7BFFE39462846FFF7BBFEBF
S3150FE1120007F1200104F58870FFF7B5FE304600F0CF
S3150FE112101DFB0E4B23650E4B63650E4BA365012339
S3150FE11220E36500F00FFB08F12001064604F5807037
S3150FE11230FFF78FFE41462846FFF78BFE304600F05B
S3150FE1124005FB10B0BDE8F081343AE10F8AD11C817C
S3150FE11250D91C83D11C81E11C2DE9F04FA5B01D46A8
S3150FE112600446CDE9001205A81C22002102F058FB25
S3150FE112704FF0010820220021284605F12007CDF87D
S3150FE11280108005F1400A02F04BFB2022002138467F
S3150FE1129002F046FB20220021504602F041FB0521D8
S3150FE112A0204600F0D6FA00232360FF26236363630B
S3150FE112B07211019806F01F0350F8222008FA03F382
S3150FE112C0134206F1FF3102D10E460029F0D100F0AB
S3150FE112D0B9FA04F582733946804618460293FFF749
S3150FE112E04AFE404600F0B2FA7A4B7B4A23656265C5
S3150FE112F07A4AA26500F0A6FA04F5807914A9804628
S3150FE113004846FFF726FE404600F0A0FA00F09AFAAB
S3150FE11310294680464846FFF72EFE404600F096FAEC
S3150FE113206F4A704B22654FF486726365A26500F0D2
S3150FE1133089FA04F5867883460CA94046FFF709FE3C
S3150FE113401CA94846FFF705FE584600F07FFA00F064
S3150FE1135079FA029B0393514683461846FFF70BFE34
S3150FE11360584600F073FA604B23650123636500F07D
S3150FE1137069FA04F5847B294602905846FFF7FBFD8F
S3150FE11380029A104600F062FA584A226502F1D942F2
S3150FE1139002F5DE1202F595626265A2F58612012368
S3150FE113A0A2F2BA42A265E36500F04CFA1CA90290DB
S3150FE113B05846FFF7E0FD0CA94046FFF7DCFD029A20
S3150FE113C0104600F043FA4A4A22654A4A62654A4A9A
S3150FE113D0A26500F037FA2946029004F58870FFF707
S3150FE113E0B8FD029A104600F031FA00F02BFA039B92
S3150FE113F0029039461846FFF7BEFD58465146FFF7AC
S3150FE11400BAFD14A94046FFF7B6FD029A104600F061
S3150FE114101DFA3A4B23653A4B636500F013FA5146D1
S3150FE1142083464846FFF795FD39464046FFF791FD5E
S3150FE11430584600F00BFA012106F01F0301FA03F3F8
S3150FE114407211019951F82220134217D02B687BB9FB
S3150FE114502846FFF773FD58B12B6A4BB93846FFF7AC
S3150FE114606DFD28B12B6C1BB95046FFF767FD60B9CF
S3150FE114702B46009A29462046FFF7D8FD16F1FF368F
S3150FE11480BFF425AF25B0BDE8F08F009BAC4603F165
S3150FE11490200E18685968624603C2083373459446AD
S3150FE114A0F7D1BC4603F1200E18685968624603C2AC
S3150FE114B0083373459446F7D10DF1100EBEE80F00D0
S3150FE114C005F1400CACE80F009EE80F008CE80F0029
S3150FE114D0D4E700BF8AD11C81821CC00C0C0C010021
S3150FE114E0C00C0C83D91C83D88AD11C83DA0C8114E6
S3150FE114F08CE11CD01484E31482D11C01D81483D15E
S3150FE115001CC00C0110B520220C46002102F008FA8E
S3150FE1151004F12002013812F8013D00F8013FA24221
S3150FE11520F9D110BD2DE9F04FBBB089460446002134
S3150FE1153090460AA860229A46449F02F0F1F960228A
S3150FE11540002122A802F0ECF9B9F1000F00F01E819B
S3150FE11550BAF1000F00F01A81002F00F01781B8F1F0
S3150FE11560000F40F3138100232360236363636368F2
S3150FE11570884E43F0100363600C21204600F069F9B1
S3150FE11580636823F4406343F400636360636823F4A1
S3150FE11590407343F4007363600FCE2AAD0FC596E82F
S3150FE115A00F0085E80F0000F04DF904F584768346C8
S3150FE115B03946304604F58675FFF7DDFC2AA928463C
S3150FE115C0FFF7D9FC584600F041F90122724B23652A
S3150FE115D062656269D20104D440F202603BB0BDE8B4
S3150FE115E0F08F391F082251F8040F002800F0C6804A
S3150FE115F0019300F027F907F1200B00905946304689
S3150FE11600FFF7B9FC2AA92846FFF7B5FC009A104661
S3150FE1161000F01CF9019B2365012363656369DB0117
S3150FE11620DAD507F11C02082352F8041F002900F04E
S3150FE11630A980B8F1200FA8BF4FF020082022002182
S3150FE1164032A802F06DF908F1FF30CC4620F0030322
S3150FE116503AA940330B441CF8012B00F00301C900F2
S3150FE116608A4053F8601C0A4343F8602CACEB09033C
S3150FE11670434500F1FF30E9DB00F0E4F832A980469B
S3150FE116803046FFF778FC404600F0E0F8434B236520
S3150FE1169000F0D8F804F58078814632A94046FFF785
S3150FE116A058FC484600F0D2F82AAA02AB5946204622
S3150FE116B0FFF774FC00F0C6F804F58879834602A9B2
S3150FE116C004F58270FFF757FC32A94846FFF753FC42
S3150FE116D039462846FFF74FFC584600F0B7F8304B2E
S3150FE116E0236503F1FA43A3F50063636500F0AAF8F6
S3150FE116F032A983464846FFF72CFC02A94046FFF77D
S3150FE1170028FC584600F0A2F80AAB32AA2549204632
S3150FE11710FFF7A2FD22AB02AA51462046FFF79CFD39
S3150FE117200AAA11462046FFF741FD22AB19460AAA3E
S3150FE117302046FFF77BFC22AA11462046FFF736FD2E
S3150FE1174000F080F80C218046204600F082F822A9AD
S3150FE117503046FFF710FC39462846FFF70CFC4046AA
S3150FE1176000F074F8104B2365104B6365636913F052
S3150FE11770807F40F2046018BF00202FE7013A7FF423
S3150FE1178032AF29E7013B7FF44FAF25E740F2016026
S3150FE1179024E700BF543AE10F3035DA1030D00C01AF
S3150FE117A030E11C84743AE10F3035DA14393801002F
S3150FE117B0044BD3F84421D20703D4D3F84021104286
S3150FE117C0FBD1704700400E40C0F30322013A38B512
S3150FE117D00546092A13D8DFE802F02313121205167C
S3150FE117E019121C20104C0020C5F3043508B1FFF780
S3150FE117F0DFFF04F1047405EBC404A400216038BDD6
S3150FE1180000200A4CF0E70120094CEDE71020094CC6
S3150FE11810EAE74FF48030084CE6E70020074CE3E7B0
S3150FE118200020074CE0E700BFB0400E40C0400E403D
S3150FE11830E0400E40E8400E40F0400E4050410E4071
S3150FE1184000400E40EFF3108072B6704700B962B6F2
S3150FE1185070470E2910B543680DD801228A4047F229
S3150FE11860E004224223F01F0306D140F61F74224201
S3150FE1187001D01943416010BD41F01001F9E70000B5
S3150FE11880094A0A4BD969C90705D512B96FF00200A2
S3150FE118907047013AF6E7002AF8D001221861DA60BB
S3150FE118A0D86940F3800070478096980000000E409B
S3150FE118B070B509B9002070BD0E4A0023082550F80E
S3150FE118C0234094610C4CD5600133D669F60705D5F3
S3150FE118D014B96FF00200EEE7013CF6E7002CF8D001
S3150FE118E0D469A40702D49942E9D1E3E76FF0010085
S3150FE118F0E1E700BF00000E40809698002DE9F8431E
S3150FE119001C4B884641F671311D6C19641A4907461D
S3150FE1191048684968996841F00101ADB29960960846
S3150FE119204FF00009B14501D3002005E007EB89042B
S3150FE119302046FFF7A5FF48B10E4B9A6822F0010248
S3150FE119409A600DB100221A64BDE8F883C4F30A0464
S3150FE11950C4F50064A408A6EB09039C4228BF1C4604
S3150FE1196021464046FFF7A4FF0028E5D1A14408EB45
S3150FE119708408D7E700000E4000300E40204B41F6B9
S3150FE1198071311A6C10B519641E494C68496899682A
S3150FE1199041F00101996001211861D960D9694C07BC
S3150FE119A092B209D5996821F0010199600AB1002235
S3150FE119B01A644FF0FF301FE00221134CD96019462C
S3150FE119C0D869C00700D56CB9C8698B6810F00200F9
S3150FE119D023F001038B6007D00AB100230B646FF08C
S3150FE119E0010009E0013CEBE724B902B10C646FF0A9
S3150FE119F0020001E00AB1086410BD1046FCE700BF22
S3150FE11A0000000E4000300E4080969800FFF776BF3B
S3150FE11A102DE9F04F02F16044B4F5803F03D94FF061
S3150FE11A20FF30BDE8F08F314FDFF8CCE0DFF8CC9037
S3150FE11A30DFF8CCA0302505FB00754FF44014C5F84F
S3150FE11A4080400024C5F88440C5F88840C5F8984021
S3150FE11A50274C41F67136D4F840802664A66846F0E5
S3150FE11A600106A660012606FA00F0BC465BB9042220
S3150FE11A70E260A26822F00102A2601FFA88F202B1C7
S3150FE11A8023641846CDE74FF0010B01F5006621619E
S3150FE11A9006EA0E06C4F80CB0761AD4F81CB09E42CC
S3150FE11AA028BF1E461BF0040F4FEA9607B7D1013F39
S3150FE11AB03F0147F06057C5F88C700E4FC5F890207F
S3150FE11AC0C5F89470DCF820700743CCF82070102726
S3150FE11AD0E760DCF828703842FBD0C9F800003144E2
S3150FE11AE0CAF8000032449B1BC0E700BF00200E403E
S3150FE11AF000000E4018000E4000F8FFFF28200E44AC
S3150FE11B0020200E440B4A536911699B0003F03C03F5
S3150FE11B10C1F381110B438370136903F03F034370E4
S3150FE11B209369D26903F0F003C2F30312134303700F
S3150FE11B30704700BFD0FF0FE02DE9F047304E357902
S3150FE11B40854207468846914658D2B3681C6E2C44A7
S3150FE11B50451B954228BF1546241A21462A4640467B
S3150FE11B6001F0D3FE00F094FB04EB050A011D8A4553
S3150FE11B70A7EB050717D300F11C02A24213D98C423A
S3150FE11B80A44638BF8C46ACEB0101B368ACEB04005D
S3150FE11B906831924594BFCCEB0A02CCEB02021944B1
S3150FE11BA0404401F0B2FE00F085FB011D8A4517D3D3
S3150FE11BB000F10802A24213D98C42A44638BF8C46E3
S3150FE11BC0ACEB0101B368ACEB04008031924594BFF5
S3150FE11BD0CCEB0A02CCEB02021944404401F095FE2C
S3150FE11BE04D4508D23179C91BA9EB0502314408EB02
S3150FE11BF0050001F08AFE0020BDE8F0870025EFE73A
S3150FE11C00240100202DE9F043284C8046207989B044
S3150FE11C100F46D0B1C0F104058D4228BF0D462A46C5
S3150FE11C204146204401F071FE22792A44D2B2042AB8
S3150FE11C3022710BD1E368A068214601F0FFF9002379
S3150FE11C40237118B109B0BDE8F08305467E1B36F066
S3150FE11C5003061CD020220021684601F061FE202EEA
S3150FE11C60B14628BF4FF0200908EB05014A46684601
S3150FE11C7001F04BFEE368A0684A46694601F0DEF9DA
S3150FE11C804D44A6EB09060028DCD1002EE7D1BD4273
S3150FE11C904FF0000608D27F1B3A4608EB05010348D1
S3150FE11CA0266001F032FE27713046CBE72401002092
S3150FE11CB038B100238360036043608372C1601846C5
S3150FE11CC0704741F2013070472DE9F047002588B0A2
S3150FE11CD004460E4617469846A946BD4201D3002053
S3150FE11CE05BE0A37A142B2ED005D873B10A2B21D042
S3150FE11CF041F2023051E0232B3AD0282B42D01E2B52
S3150FE11D00F6D1735D238123230BE0725D1209226005
S3150FE11D10715D238101F00F0104310F2A616006D154
S3150FE11D200A23A372A37A322B20D100204CE042B9C9
S3150FE11D301E23F6E7725D236813442360735DFF2B61
S3150FE11D40F0D01423EDE72368A7EB050A9A4528BFE0
S3150FE11D509A4670195146C0472368013DA3EB0A0322
S3150FE11D6023605544BBB91E23A372B0B90135B4E75D
S3150FE11D70725D238943EA022323816368132B08D11A
S3150FE11D802823CEE7725D636813446360735DFF2BAF
S3150FE11D90C8D03223C5E70028C4D008B0BDE8F08724
S3150FE11DA0A8B92089202B28BF202383429A4628BF32
S3150FE11DB08246E36852466946984751466846C047A8
S3150FE11DC06368A3EB0A0363606368002BE8D184F8C9
S3150FE11DD00A90CAE7084B10B520220446002118469F
S3150FE11DE001F09EFD01228460427104491030BDE885
S3150FE11DF01040FFF75DBF00BF24010020391BE10F43
S3150FE11E0070B40646586878B1084D6C7924B1002054
S3150FE11E106871086830660424EB60121B2144044B99
S3150FE11E20044870BCFFF750BF70BC70472401002017
S3150FE11E30051CE10F34010020436D002B0CBF04207C
S3150FE11E40012070474B6810B59BB10C4C207968B1F6
S3150FE11E50C0F10402FF21204401F062FDE368A068AE
S3150FE11E600422214601F0EAF800232371A37E1E2BFB
S3150FE11E7001D1002010BD41F20230FBE72401002021
S3150FE11E8000487047B43AE10F00207047024BD8691A
S3150FE11E9000F00100704700BF00000E4008B5034691
S3150FE11EA008469918B1F5002F04D8194601F02DFD12
S3150FE11EB0002008BD40F20240FBE78318B3F5002F7F
S3150FE11EC010B50ED940F2024010BDC45801340AD103
S3150FE11ED004339A42F9D800F085FD0028F2D00020AC
S3150FE11EE0F2E70023F5E740F20340EDE74FF0FF306D
S3150FE11EF0704738B5C1F30A030446B3B9C0F30A0311
S3150FE11F009BB90D18B5F5002F08D8204604F50064E6
S3150FE11F1000F01EFDA54204D00028F6D140F20240A2
S3150FE11F2038BD0028FAD00020FAE740F20440F7E77F
S3150FE11F300020704730B58B0785B015D0056804686A
S3150FE11F4002680368CDE90054CDE902236C460B46DE
S3150FE11F5004AD224603CAAA4218605960144603F13A
S3150FE11F600803F6D105B030BD0091009B0568046802
S3150FE11F7001680268C3E90054C3E90212F2E77FB5CB
S3150FE11F808B07024615D00B466D4601F11006186810
S3150FE11F9059682C4603C40833B3422546F7D1009B53
S3150FE11FA01360019B1360029B1360039B136004B0E4
S3150FE11FB070BD0091009BD3E90040D3E90213146091
S3150FE11FC010601160F2E700F10473102A30B54FEAA1
S3150FE11FD043131AD101221A60D1E90054D1E9022340
S3150FE11FE0C0F81051C0F81041C0F81021C0F81031F7
S3150FE11FF0D1E90454D1E90623C0F81051C0F81041D4
S3150FE12000C0F81021C0F8103130BD00221A60D1E9B5
S3150FE120100054D1E902234562446242624362F3E727
S3150FE12020F0B58B0789B0064615461FD0082A0B4631
S3150FE120306C4610D101F1100718685968224603C2A0
S3150FE120400833BB421446F7D12A4669463046FFF7B5
S3150FE12050BAFF09B0F0BD01F12007186859682246A9
S3150FE1206003C20833BB421446F7D1EDE7009100995D
S3150FE12070EDE72422002101F053BC38B514460D4695
S3150FE120802422002101F04CFC802C034602D0B4F54A
S3150FE12090807F08D11846E20840F8044B294601F043
S3150FE120A034FC002038BD6FF07100FBE72DE9F04FEE
S3150FE120B085B0814688460193174652B11668D9F81D
S3150FE120C00030802B03D0B3F5807F40F09B80002456
S3150FE120D00DE01646F3E7A6B10F9B0E9A1B5D925DD7
S3150FE120E05340109A0136135506F00F060134444555
S3150FE120F0F1D3002F00F089803E60002005B0BDE8E6
S3150FE12100F08F00F085F84FF44043466003600546D3
S3150FE12110FFF798FBD9F80030802B824614BF1022C7
S3150FE12120082209F104012846FFF77AFF05F1840336
S3150FE12130184601990093FFF722FF5046A8EB040AD0
S3150FE121402AF00F0AFFF782FBA2440323544519D164
S3150FE121500F9B03EB040A109B1C440F9B03EB080B2D
S3150FE121600323DA452CD1FFF76DFB0446DDE90001C8
S3150FE12170FFF7E0FE2046FFF769FB284600F052F82D
S3150FE121804446B4E74822AA600522AA602A69910764
S3150FE12190FCD4AB600293FFF755FB0F9B83461919EE
S3150FE121A005F1A000FFF7EBFE109B05F18000191971
S3150FE121B0FFF7C0FE5846FFF749FB1034029BC5E710
S3150FE121C0AEB94822AA600522AA602A699207FCD411
S3150FE121D0AB600393FFF736FB0E99029005F1800092
S3150FE121E0FFF7A8FE029A1046FFF730FB039B0E9905
S3150FE121F01AF8012B895D01364A4004F8012B06F0E6
S3150FE122000F06AEE76FF0200078E7384676E7000075
S3150FE12210024B034801221A60704700BF0016C843FC
S3150FE1222000000F40094B98420ED003F580639842A8
S3150FE1223009D10122064B03EBC2035A68054B13443E
S3150FE122409B0000221A6070470022F3E700000F405F
S3150FE12250E83AE10F8005F2100068024BC31A5842C3
S3150FE1226058417047FD0505FD034A044B90420CBFEB
S3150FE1227018460020704700BFFD0505FDF83AE10F4E
S3150FE1228001207047012070470020704701207047F9
S3150FE12290014B1B68186970472808E10F014B186855
S3150FE122A0704700BF2800E10F014B1868704700BF68
S3150FE122B02808E10F044B054A1B68196891420CBFC8
S3150FE122C018690020704700BF2800E10FAD1007B075
S3150FE122D00120704710B5DEB04FF4BC72694600209D
S3150FE122E000F05CF940F201240021684600F099F80C
S3150FE122F0A042F9D040F20323984203D040F20540C1
S3150FE123005EB010BD9DF8003003F00302022AF5D04E
S3150FE123109A0710D50D4A01991268926891420AD926
S3150FE123205A9800F06DF90028E8D0FFF7C3FF099935
S3150FE1233000F0B2FCE2E7DB07E0D503995A9800F02B
S3150FE1234083F90028DAD00020DAE700BF2808E10F89
S3150FE123504FF488207047FFF7BDBF00000048704774
S3150FE123604A43E00F004870476A43E00F0048704761
S3150FE123708642E00F31B10A4B5A68824205D80023F3
S3150FE12380C1E9003340F201407047013053F8302084
S3150FE123900A6003EBC00300205B684B60704700BF28
S3150FE123A0D03AE10F01221A707047000070B40D4C5C
S3150FE123B00E461146626882420DD9013004EBC00226
S3150FE123C0F518526895420AD854F830001A46304447
S3150FE123D070BCFFF763BD40F2014070BC704740F23D
S3150FE123E00240FAE7D03AE10F30B5A3B004460D4605
S3150FE123F002AAD0F87011D0F868018023FFF7D6FF53
S3150FE124000095802302AA214604F1280000F0A2FEDE
S3150FE12410D4F87031C4F874018033C4F8703123B045
S3150FE1242030BD1FB50023CDE90033CDE90213D0F856
S3150FE1243074310446A3B9D0F87021D0F86C319A42C1
S3150FE124400ED26946FFF7D0FFD4F8740198B141F285
S3150FE12450070240F20123904208BF184604B010BDAF
S3150FE12460A3785BB1E27840F2022040F20323002A1F
S3150FE1247018BF1846F2E740F20120EFE740F20220DB
S3150FE12480ECE7000070B586B006AB0D46002103F808
S3150FE12490111D02931E4B11600446164628461C2257
S3150FE124A0CDE90333059301F03BFA9DF8072062B9B5
S3150FE124B094F86E30112B08D0D4F874312BB9D4F8C7
S3150FE124C07011D4F86C3199421AD32378990744BF26
S3150FE124D0636833602378DB0709D504F1080304F158
S3150FE124E0240153F8040B45F8040B8B42F9D162B979
S3150FE124F02378002B40F2064018BF002006B070BDCE
S3150FE1250002A92046FFF770FFCFE70020F6E700BFED
S3150FE12510A523E10F70B40D4C0E4611466268824257
S3150FE125200DD9013004EBC002F518526895420AD86D
S3150FE1253054F830001A46304470BCFFF7BEBC40F287
S3150FE12540014070BC704740F20240FAE7D03AE10F22
S3150FE12550074B5A68824207D9013003EBC00253F8A1
S3150FE1256030005168FFF7C5BC40F20140704700BF2C
S3150FE12570D03AE10F10B5044660B14FF48032002333
S3150FE12580C0E90023044B1A785B680272C360FFF758
S3150FE1259077FC206110BD00BFD03AE10F37B50C468D
S3150FE125A005461146204600F089FB48B9694628469B
S3150FE125B0FFF7E0FE20B9019BC4F86851C4F86C310E
S3150FE125C003B030BD38B500F5807204460D462023C1
S3150FE125D000F1B801283000F083FDD4F874312BB93E
S3150FE125E0D4F87021D4F86C319A4203D3A07800B1B4
S3150FE125F0E07838BD29462046FFF7F6FEEDE7000005
S3150FE1260030B5E3B00D460446FFF74EFE8368AB42A5
S3150FE1261002D3002063B030BD4FF4BC7204A920464B
S3150FE12620FFF7BCFF0028F4D102238DF81130CDE975
S3150FE1263000000290034B0393694604A8FFF7C2FF1C
S3150FE12640E8E700BFBD2AE10F00B5E3B04FF4BC7276
S3150FE1265004A9FFF7A3FF70B901238DF81130074BDA
S3150FE126600090CDE901300390694604A8FFF7AAFF70
S3150FE1267063B05DF804FB0020FAE700BF912AE10F92
S3150FE126802DE9F0419AB0502204460D4606A80021E5
S3150FE1269001F046F91422002101A801F041F901A840
S3150FE126A0FFF768FF049B012B0ED8002323604FF041
S3150FE126B0FF320123AB4203D300201AB0BDE8F0810C
S3150FE126C044F823200133F5E7AB426BD3FFF740FE26
S3150FE126D0059B0C2206A90646DF68FFF7DFFB0028FC
S3150FE126E0EBD1DFF8CC80069B434516D1089A06A9B4
S3150FE126F03046FFF7D3FB4FF0FF32089906A8FEF7F6
S3150FE12700C1F92A4B984233D004EB85054FF0FF33DD
S3150FE12710A54213D044F8043BFAE737440C2206A945
S3150FE127203846FFF7BBFB0028C7D1069B43450BD0C5
S3150FE1273004EB85054FF0FF33A54202D140F2055078
S3150FE12740BBE744F8043BF7E706A9089A3846FFF7D3
S3150FE12750A5FB059B3046D968FFF7CBFB0028ACD12B
S3150FE12760089A06A93046FFF7A8FB0028BED0A4E7D2
S3150FE12770089BA3F110029208AA4228BF2A4600231A
S3150FE12780934207D14FF0FF32AB4295D244F8232063
S3150FE127900133F9E706A901EB8301C96844F8231070
S3150FE127A00133EDE740F2045087E700BFE320BBDEDC
S3150FE127B039528FE1F0B59BB00D4644220021074611
S3150FE127C009A801F0ADF8304A0123CDE9062300212E
S3150FE127D05023142201A8089301F0A2F801A8FFF7EC
S3150FE127E0C9FE049BAB424BD3012B08D83B6801339F
S3150FE127F0012B40F2045098BF00201BB0F0BDFFF74C
S3150FE12800A7FD059BDC68102D0646044428BF10255D
S3150FE128100023AB4226D14FF0FF32102B2AD14C21A8
S3150FE128204FF0FF3206A8FEF72DF9059BC04319902D
S3150FE12830D9682046FFF75DFB0028DED1502206A9B5
S3150FE128402046FFF73AFB0028D7D1059B3046D968DA
S3150FE12850FFF74FFB0028D0D1502206A93046FFF7EC
S3150FE128602CFBCAE706AA02EB830257F82310D160C5
S3150FE128700133CEE706A901EB83010133CA60CCE749
S3150FE1288040F20450B9E700BF39528FE170B596B007
S3150FE1289014220021064601A801F042F801A8FFF72C
S3150FE128A069FE049C012C1ED906AD21462846FFF789
S3150FE128B0E7FE20B140F2055398420DD1002055F8BD
S3150FE128C020305A1C0AD116AB03EB8000214640F8A3
S3150FE128D0406C2846FFF76EFF16B070BDB34205D0C8
S3150FE128E001308442EBD140F20250F5E740F203505A
S3150FE128F0F2E713B50B461446820753BF6FEA03435C
S3150FE129004FF6FF7242EA03436FEA1343019304233F
S3150FE1291020F003010DEB03022046FFF779F802B031
S3150FE1292010BD07B503469B0753BF6FEA01414FF64B
S3150FE12930FF7343EA01416FEA11410422019120F04D
S3150FE1294003000DEB0201FFF761F803B05DF804FB3D
S3150FE1295008B5FFF713F8B0FA80F0400908BD072B69
S3150FE129602DE9F04105460E4614461F4602D90020D1
S3150FE12970BDE8F08101214FF4AA40FEF725FF0CB91E
S3150FE129800120F5E744EA0503DA07F0D4AB0726D5CC
S3150FE129903A4631882846FFF7ACFF0028E7D1023CDB
S3150FE129A0032C05F1020506F102060DD924F0030801
S3150FE129B04346324629463846FFF72AF80028D6D14C
S3150FE129C046444544A4EB0804002CD9D03A46318855
S3150FE129D02846FFF78EFFB0FA80F04009C8E7032CCF
S3150FE129E0E4D8F3E7F8B505460E4614460AB90120D1
S3150FE129F0F8BD42EA0003DA0701D50020F8E78307BD
S3150FE12A0021D50988FFF78DFF0028F6D1023C032C6B
S3150FE12A1005F1020506F102060BD924F003073A4642
S3150FE12A2031462846FEF7F2FF0028E6D13E443D4403
S3150FE12A30E41B002CDBD031882846FFF772FFB0FA92
S3150FE12A4080F04009D4E7032CE7D8F4E7C0F30A0393
S3150FE12A502DE9F04105460F4616460BB9FFF778FF0C
S3150FE12A6005F5006424F4FF6424F0070405EB06087A
S3150FE12A70A04507D83246394628460223BDE8F0413C
S3150FE12A80FFF76DBF2046FFF763FF04F50064EFE73D
S3150FE12A9070B504460E461546FFF706FC0369A342D9
S3150FE12AA00AD8426963199A4206D32A463146204625
S3150FE12AB0BDE87040FFF7CABF70BD00002DE9F041D8
S3150FE12AC0154607468846FFF7E9FB104B02689A421F
S3150FE12AD019D1FFF7E9FB0646FFF7ECFBC4196319BA
S3150FE12AE0B3F5002F0FD83FB9FFF7E4FB73698342C4
S3150FE12AF002D93069FFF72CFF2A4641462046BDE849
S3150FE12B00F041FFF7A3BFBDE8F08100BFAD1007B0FD
S3150FE12B10F0B50F4B85B06C46024603F1100726461A
S3150FE12B2018685968254603C50833BB422C46F7D1C9
S3150FE12B3004AB501E13F8011D10F8012F914204D179
S3150FE12B40B342F7D1012005B0F0BD0020FBE700BF8E
S3150FE12B50503BE10F007C01288CBF0020012070471C
S3150FE12B6070B59EB040F20463446B03930546FFF7DD
S3150FE12B709BFB06462046FFF7CBFF10B900201EB0A0
S3150FE12B8070BD2046FFF7E6FF0028F7D0FFF77CFB85
S3150FE12B9048BB2046FFF7BCFF60BB3369A342EDD8C4
S3150FE12BA0A542EBD8B4F5002FE8D804A8FDF7F8FF56
S3150FE12BB0621B294604A8FDF7FDFF04A8FDF7FCFFFC
S3150FE12BC0FFF7CCFB0546FFF7CDFB2B46009004F153
S3150FE12BD02002214604A8FDF7A5FF03900398B0FA5A
S3150FE12BE080F04009CBE70121206AFDF77DFE002841
S3150FE12BF0CFD1C3E76369012BC0D12046FFF7AAFF07
S3150FE12C000028BBD0A469C8E7F8B5D0E9006706F19B
S3150FE12C1060460446456BFFF747FBB6F5803F01D9A2
S3150FE12C200020F8BD0369BB42FAD8B7F5002FF7D8F4
S3150FE12C304033AB4202D8B5F5002F05D9FDF720FF9A
S3150FE12C4080F00100C0B2ECE7FDF71AFF20B1204694
S3150FE12C50BDE8F840FFF784BF2846FFF759FFB8B143
S3150FE12C602846FFF777FF0028DAD06B69002BD8D01B
S3150FE12C70022BECD1AB69C4F1040119444FF0FF32D9
S3150FE12C802046FDF7FFFE034BC31A58425841C8E7EA
S3150FE12C900120C6E7E320BBDE08B54FF0FF32FDF7B3
S3150FE12CA0F1FE054B984205D1FDF720FE40F20920D2
S3150FE12CB000F0B6F8002008BDE320BBDEB1F5BC7F1E
S3150FE12CC010B5044610D34FF4BC72002100F028FE74
S3150FE12CD00023637004F5807204F1B80104F1280052
S3150FE12CE0BDE8104000F0FCB940F2052010BD13B568
S3150FE12CF0044600910146283000F02CFAC4F874011D
S3150FE12D0018B141F20703984209D1A3784BB1E278A2
S3150FE12D1040F2032040F20223002A08BF184602B010
S3150FE12D2010BD40F20120FAE72DE9F04387B002AF7B
S3150FE12D3004460E9E884691460021102238461D46CE
S3150FE12D4000F0EEFD002131601C22284600F0E8FD7F
S3150FE12D504B4642460097214604F1280000F0FAF966
S3150FE12D6023789A0744BF636833602378DB0709D575
S3150FE12D7004F1080304F1240253F8041B45F8041B7C
S3150FE12D809342F9D12378002B40F2064018BF002079
S3150FE12D9007B0BDE8F0834FF4BC7070474FF00053B6
S3150FE12DA04CF23C325A8070474FF000534AF6C0322C
S3150FE12DB05A8070474FF000534FF20F025A80704717
S3150FE12DC04FF000534AF6C0305B8823F00F031B1A0E
S3150FE12DD05842584170474FF0005208B51080FFF73F
S3150FE12DE0EFFF10B94FF20F03538008BD08B5FFF798
S3150FE12DF0E7FF20B14FF00053987800F00F0008BDC0
S3150FE12E0008B5FFF7DDFF50B14FF00052538803F0DD
S3150FE12E100F010F2914BF013323F00F03538008BDB0
S3150FE12E2008B5FFF7D8FF0A4A136823F4E06343F4C2
S3150FE12E3000731360BFF34F8F0649074BCA6802F45D
S3150FE12E40E0621343CB60BFF34F8F00BFFDE700BFD7
S3150FE12E5000500E4000ED00E00400FA0508B5FFF75B
S3150FE12E60AFFF30B94FF000534FF20F015A888A4244
S3150FE12E7003D14FF00053188808BD3AB91B88012BCF
S3150FE12E8040F2022018BF4FF40070F5E74FF40070DF
S3150FE12E90F2E770B5D1E90152AA4205D290F8403076
S3150FE12EA02B449B1A402B10D9002012E00A6890F8A8
S3150FE12EB04040D65C90F84120224402F03F020133B4
S3150FE12EC0013486548B6080F840408B689D42EDD883
S3150FE12ED0012070BD2DE9F8431746D1E90125521BB3
S3150FE12EE090F840509DF820909DF824802A44934213
S3150FE12EF004460E4657D9FFF7CCFF00285DD11223C2
S3150FE12F0084F8463041F20200BDE8F88394F8412097
S3150FE12F10A25C7A5594F84120013202F03F0284F81F
S3150FE12F20412094F84020013A84F84020013594F885
S3150FE12F30402012B1AB42E9D11D46D6E901128A42D0
S3150FE12F4001D2AB4231D8AB42D9D1D4F88820294648
S3150FE12F503846FDF797FDC4F88800B9F1000F04D0A4
S3150FE12F602A463946E06CFDF725FEB8F1000F08D089
S3150FE12F7094F843302BB12B463A463946A06CFDF710
S3150FE12F80BFFD94F8433043B1E36DA26D2B449342F9
S3150FE12F90E36524BF002384F84330636D1D44656503
S3150FE12FA041F20300B0E70025C1E731688A5C7A5543
S3150FE12FB0B2680132B2600135BFE70020A4E7000035
S3150FE12FC07FB50023CDE90033082315460DEB030248
S3150FE12FD00446FFF77FFF41F203039842064626D1E7
S3150FE12FE094F8433063B108220DEB0201E06CFDF773
S3150FE12FF0E1FD08230DEB03021146A06CFDF780FD01
S3150FE13000039A6A6094F84320029B2B605AB9094AE6
S3150FE13010934208D0084A934205D008220DEB0201EC
S3150FE13020E06CFDF7C7FD6B682365002363653046EA
S3150FE1303004B070BDF70A0AF7FC0404FC2DE9F84366
S3150FE13040044658680D4616461F46002843D08B079F
S3150FE1305043D1FFF71DF9216E00F1040C06EB0109CF
S3150FE13060CC451DD800F11C02914219D28C4563461D
S3150FE1307038BF0B46591AA3EB0C00914594BFC3EB2E
S3150FE130800909C3EB020905EB010868304A464146D7
S3150FE13090204400F03AFC4A46FF21404600F040FC4E
S3150FE130A0FFF708F9226E031D93420AD3B1180830D0
S3150FE130B0814206D39B1AEA58C4F880204FF0FF32BB
S3150FE130C0EA50D7E900383246206E2946C047236ECB
S3150FE130D01E4426660020BDE8F88341F20200FAE7B6
S3150FE130E0F8B504464FF0FF36154603F020030022EC
S3150FE130F080F84620A0F8402080F8432080F845204C
S3150FE1310080F84420C0E918220F4680F84230C0F813
S3150FE1311088601822FF21683000F002FCC4F8806055
S3150FE13120C4F88460C4E91275FFF7ACF818B117B9A2
S3150FE1313041F20B00F8BDFFF7A3F830B1002DF7D040
S3150FE13140E06CFDF72DFD0020F4E7002DF8D12846C0
S3150FE13150F0E700002DE9F04F9DB0CDE90923039388
S3150FE13160269EDFF8F4B30023044688460B9399466F
S3150FE131700B9A039B9A4259D294F84630122BF8D800
S3150FE13180DFE813F05D0076005600A200CF013D00A7
S3150FE13190340007023D0001023D000102EA028E03FF
S3150FE131A01300550359036F028E030027636D0F2B2F
S3150FE131B043D8012510230CAA0197009509A92046AA
S3150FE131C0FFF788FE0690069A41F203039A4241D130
S3150FE131D0D4F848A0FFF7CAF88023CDE900030DAA7A
S3150FE131E02B4602215046FDF769FCDFE70125D4E9BD
S3150FE131F014329A42C0F0258184F84650B8E70DF1B2
S3150FE13200300AD4E91452AA420B9916D20A9BAD1A87
S3150FE1321094F840205B1A032D134440F2BE81032B31
S3150FE1322000F2E48109A92046FFF733FE002050E0C2
S3150FE132300025636D072B40F2CB80012315E007AA2A
S3150FE1324009A92046FFF7BCFE0690069A41F2030351
S3150FE132509A4201D006983CE0089B236500236365FB
S3150FE13260079AB24B9A422FD1022384F846307FE771
S3150FE1327007AA09A92046FFF7A3FE0690069A41F28F
S3150FE1328003039A42E6D194F84420079B22B1A84A58
S3150FE13290934219D10C23E8E794F84220D1074FD591
S3150FE132A094F84320002A40F0FE82A24A934241D08D
S3150FE132B017D8A14A934207D00ED89C4A934203D01E
S3150FE132C002F1B642934215D1122384F8463041F208
S3150FE132D001001DB0BDE8F08F984A9342F4D0984AA9
S3150FE132E0F0E7984A93421BD00CD85B4543D0964AF8
S3150FE132F0934217D0122384F8463007A8FEF7ACFFA6
S3150FE13300D8B1E4E7914A9342DED0914A9342DBD0BA
S3150FE13310874A9342EED1FEF7B3FF0028BAD0D3E73F
S3150FE133200E23A2E70F2384F84630236DA36500230E
S3150FE13330E3651DE7122384F8463041F20800C8E73A
S3150FE133405B4514D000F2B3827C4A934207D07C4AA4
S3150FE13350934206D0784A93420FD1062385E7042399
S3150FE1336083E7072381E709237FE70B237DE794F8BB
S3150FE133704330002BA8D1102377E707A8FEF76CFFA0
S3150FE13380E0B11123079884F84630C4F88C00FEF7B4
S3150FE133906BFF94F842309A0681467FF5E9AE002835
S3150FE133A03FF4E6AE4368002B3FF4E2AE2046984782
S3150FE133B00690069B002B3FF4DBAE88E7122384F8D9
S3150FE133C0463094F84330002BB7D041F2040080E742
S3150FE133D0012300930CAA0823019509A92046FFF7BB
S3150FE133E079FD0690069A41F203039A427FF432AFD2
S3150FE133F00C9B03F07F43B3F1407F05D0122384F892
S3150FE13400463041F2090064E70D9B0593DB070ED5C4
S3150FE1341094F8423043F0010384F84230FEF730FF6F
S3150FE1342000283FF406AF059BDF0504D501E7FEF75C
S3150FE1343029FF0028F2D0122384F8463041F20A0020
S3150FE1344047E70CAACDE9005509A92046FFF742FD4A
S3150FE134500690069A41F203039A427FF4FBAE08F116
S3150FE1346008070DF1300C3B460DF1480E624603CAD3
S3150FE13470724518605960944603F10803F6D1106856
S3150FE13480186098F8003043F0010388F800303846A9
S3150FE13490FEF71EFF28B9122384F8463041F20C00DD
S3150FE134A017E700213846FEF7F1FE00287FF49FAEBD
S3150FE134B0F1E70123CDE900330CAA082309A9204638
S3150FE134C0FFF708FD0690069A41F203039A427FF44D
S3150FE134D0C1AE98F8003043F0020388F800300C9B38
S3150FE134E0C8F80430236D083BC8F824300D9B0593CB
S3150FE134F0FEF7D4FE174A036893427FF4E8AEFEF770
S3150FE13500CDFE059BC2689A427FF4DEAE052384F8B1
S3150FE13510463094F8453043F0010384F845300023F3
S3150FE135206366636D072BC4D922E600BFEB17A603CB
S3150FE13530FC0404FCF70909F7F40A0AF4F50909F59D
S3150FE13540F60808F6FA0606FAF90707F9FD0303FD89
S3150FE13550FE0101FEAD1007B0F70A0AF704230CAA24
S3150FE13560CDE9005509A92046FFF7B4FC0690069A66
S3150FE1357041F203039A427FF46DAE226D0C9B0593E4
S3150FE13580042A01D923660125636D032BE6D90A23A4
S3150FE135906BE600236366082367E69D423FF642AE7C
S3150FE135A09D4228BF1D46032D88BF25F00305012344
S3150FE135B0CDE9003352462B4609A92046FFF78AFC8F
S3150FE135C00690069A41F203039A427FF443AE94F8CA
S3150FE135D04630082B13D1B7688FB13368606E2A4630
S3150FE135E05146B847636E1D4465660AE6402D28BF0E
S3150FE135F04025D5E74FF0FF320AF805200135032DB7
S3150FE13600F8D90A2B11D173683BB1012108F10800F2
S3150FE13610FEF73CFE00283FF43EAF33462A465146BD
S3150FE136202046FFF70BFD0690EBE5052B7FF4E9ADA1
S3150FE1363098F8013098077FF5E4ADF368002B3FF476
S3150FE13640E0AD626E042A0AD85319062B07D90DABE2
S3150FE136509B1A1A68C4F884204FF0FF321A60F76894
S3150FE13660BBE794F84230990607D5D4F88C00FEF7FC
S3150FE13670FBFD814600283FF42AAE73683BB1012179
S3150FE1368008F10800FEF702FE00283FF404AF012718
S3150FE1369043E0002B5ED0B9F1000F5BD0D9F81030C3
S3150FE136A0002B57D020469847DDE90A53ED1A94F8D7
S3150FE136B040302B4498423FF6B5ADD4E91452AD1ADA
S3150FE136C0402D28BF40259D4228BF1D462B460CAAFB
S3150FE136D0CDE9007709A92046FFF7FCFB0690069A8C
S3150FE136E041F203039A427FF4B5AD94F842309A065C
S3150FE136F013D5B9F1000F3FF4EAADD9F808A0BAF145
S3150FE13700000F3FF4E4AD33462A460CA92046D047D5
S3150FE137100690069B002B7FF49DADD4E9142194F816
S3150FE137204230914203F02003B3D3002B3FF485AD32
S3150FE13730B9F1000F3FF481ADD9F80C30002B3FF40E
S3150FE137407CAD3146204698470690069B002B3FF409
S3150FE1375074AD7FE50120A7E70023CDE900330CAA7D
S3150FE13760042309A92046FFF7B5FB0690069A41F215
S3150FE1377003039A427FF46EADD4F88820574B9A42F1
S3150FE1378005D0122384F8463041F20500A1E5FEF794
S3150FE1379077FD10B9012388F8033098F80330002B31
S3150FE137A03ED094F845309B0707D0F5682DB104223A
S3150FE137B0336804F184011046A847236E83B3736817
S3150FE137C073B31CAF4FF0FF3347F85C3D04F180094B
S3150FE137D004224946384600F089F840B1FEF76AFD02
S3150FE137E028B10422D6E9003549461044A84704F129
S3150FE137F0680504222946384600F078F880B17768E3
S3150FE13800FEF746FD3368142204F16C010830B84720
S3150FE138107768FEF73DFD0422336829461044B84721
S3150FE13820012388F802300D2384F84630FEE40123A4
S3150FE1383084F8433019E594F84450002D7FF4FDAC3C
S3150FE1384040230CAACDE9005509A92046FFF742FB13
S3150FE138500690069A41F203039A427FF4FBACE06CC1
S3150FE13860FDF7AAF9E76CFEF779FD8246FEF77AFDD9
S3150FE138705346009014AA0CA93846FDF753F9069062
S3150FE13880069B3BB1122388F8035041F2060084F8F8
S3150FE1389046301EE5012388F8033084F84430CCE442
S3150FE138A041F2070015E55B457FF44CAD0CE50C4A9B
S3150FE138B093423FF45AAD0B4A93423FF454AD0A4A51
S3150FE138C093427FF45AADFEF7DBFC00287FF4FCACA4
S3150FE138D094F84330002B3FF4DDACF5E4E320BBDE97
S3150FE138E0FD0303FDFE0101FEFC0404FC30B50024DB
S3150FE138F0A24201D1002007E0035D01340D1915F84D
S3150FE13900015CAB42F4D0581B30BD10B5431E0A44DF
S3150FE13910914200D110BD11F8014B03F8014FF7E7C2
S3150FE1392002440346934200D1704703F8011BF9E7BE
S3150FE13930F8B500BFF8BC08BC9E467047F8B500BFA6
S3150FE13940F8BC08BC9E46704707B0CD5E010000008B
S3150FE1395000000C01703300000000000000000800B9
S3150FE13960F3000100EF08E10FF308E10F092CE10F76
S3150FE13970BD2CE10FEF2CE10F0C3BE10F292DE10FF0
S3150FE13980972DE10F0000000013B779FAC925DDB7CE
S3150FE13990ADF3CFE0F1B614B801010000020000006B
S3150FE139A06C3BE10F4000000000000C01000000003D
S3150FE139B00000000000000000000000000000000011
S3150FE139C000000000000000006A09E667BB67AE85EC
S3150FE139D03C6EF372A54FF53A510E527F9B05688CFB
S3150FE139E01F83D9AB5BE0CD1980000000000000001A
S3150FE139F000000000000000000000000000000000D1
S3150FE13A0000000000000000000000000000000000C0
S3150FE13A1000000000000000000000000000000000B0
S3150FE13A20000000000000000020000000000100007F
S3150FE13A30050C0000FFFFFFFFFFFFFFFFFFFFFFFF8B
S3150FE13A40000000000000000000000000010000007F
S3150FE13A50FFFFFFFF512563FCC2CAB9F3849E17A787
S3150FE13A60ADFAE6BCFFFFFFFFFFFFFFFF000000001F
S3150FE13A70FFFFFFFF96C298D84539A1F4A033EB2D8E
S3150FE13A80817D0377F240A463E5E6BCF847422CE17A
S3150FE13A90F2D1176BF551BF376840B6CBCE5E316BBE
S3150FE13AA05733CE2B169E0F7C4AEBE78E9B7F1AFE82
S3150FE13AB0E242E34F01020300280000002800000064
S3150FE13AC00008000000000800E03AE10F02000000E4
S3150FE13AD0010000000100000000A0030000A00300A8
S3150FE13AE0454652333200000000000F40000000004F
S3150FE13AF000040F4001000000FD0505FDD51DE10F96
S3150FE13B00011EE10F451EE10F391EE10F0001000015
S3150FE13B107525E10F7523E10FAD23E10F1525E10FB3
S3150FE13B205125E10FB527E10F8126E10F8D28E10F31
S3150FE13B309D25E10F2324E10F8524E10F8D1EE10F72
S3150FE13B409D1EE10FBB1EE10FF31EE10FED1EE10F0F
S3150FE13B50B814B6F1E0CFF3ADB7DD25C9FA79B713EE
S3150FE13B60000000006508E10F4108E10F26017EF52F
S503039465
S70500000000FA
